:020000040800F2
:1000000000000220B93F00083D0700083F07000834
:1000100041070008430700084507000800000000EA
:10002000000000000000000000000000470700087A
:1000300049070008000000004B0700084D070008B2
:10004000094000080940000809400008094000086C
:10005000094000080940000809400008094000085C
:10006000094000080940000809400008094000084C
:10007000094000080940000809400008094000083C
:10008000094000080940000809400008000000007D
:10009000000000000000000000000000094000080F
:1000A000094000080940000809400008094000080C
:1000B00009400008094000080940000809400008FC
:1000C00009400008094000080940000809400008EC
:1000D000094000080940000809400008000000002D
:1000E000094000080940000809400008000000001D
:1000F00000000000000000000000000009400008AF
:1001000000000000094000080940000809400008FC
:1001100000000000000000000000000000000000DF
:10012000094000080940000809400008094000088B
:10013000094000080000000000000000000000006E
:10014000000000000000000000000000550700084B
:10015000094000080940000809400008094000085B
:1001600009400008094000080000000000000000ED
:10017000000000000000000000000000000000007F
:10018000000000000940000800000000000000001E
:080190000940000809400008C5
:100198000348044B834202D0034B03B1184770470E
:1001A800F8000020F8000020000000000548064B79
:1001B8001B1AD90F01EBA301491002D0034B03B15D
:1001C80018477047F8000020F800002000000000E1
:1001D80010B5064C237843B9FFF7DAFF044B13B187
:1001E8000448AFF300800123237010BDF8000020FD
:1001F800000000006440000808B5044B1BB1044926
:100208000448AFF30080BDE80840CFE700000000D5
:10021800FC00002064400008034613F8012B002A64
:10022800FBD1181A0138704753B94AB9002908BFD9
:1002380000281CBF4FF0FF314FF0FF3000F09CB991
:10024800ADF1080C6DE904CE00F006F8DDF804E025
:10025800DDE9022304B070472DE9F04782B0064675
:10026800DDF828E00846B4460D46002B4ED18A42F8
:1002780014466DD9B2FA82F242B1C2F12003954018
:1002880026FA03F394401D4306FA02FC260CA7B293
:10029800B5FBF6F14FEA1C4306FB115543EA05434B
:1002A80001FB07F0984209D9E31801F1FF3580F006
:1002B8000381984240F20081023923441B1A1FFA35
:1002C8008CFCB3FBF6F006FB10334CEA034C00FB46
:1002D80007F363450AD914EB0C0C00F1FF3580F0E5
:1002E800ED80634540F2EA80A444023840EA0140C8
:1002F800ACEB030C0021BEF1000F04D02CFA02F382
:100308000022CEE9003202B0BDE8F0878B4209D95D
:10031800BEF1000F01D0CEE900610021084602B00D
:10032800BDE8F087B3FA83F1174600294DD183421F
:1003380002D3B24200F20F81B6EB070C60EB030365
:1003480001201D46BEF1000FDDD0CEE900C5DAE779
:10035800002A00F098801A46B4FA84F3002B40F083
:10036800AF800B1B270CA6B20121B3FBF7F54FEAB0
:100378001C4007FB153340EA034306FB05F8984584
:1003880007D9E31805F1FF3002D2984500F2E8805A
:100398000546A3EB08031FFA8CFCB3FBF7F007FB39
:1003A80010334CEA034C06FB00F3634508D914EB01
:1003B8000C0C00F1FF3602D2634500F2CE803046C5
:1003C800ACEB030C40EA054095E7C1F120058B40F2
:1003D80022FA05FC4CEA030C00FA01F426FA05F3AC
:1003E800E84002FA01F943EA04084FEA1C4206FA17
:1003F80001FAB0FBF2F71FFA8CF602FB17004FEA7E
:10040800184444EA004407FB06F0A0420AD91CEB52
:10041800040407F1FF3380F09C80A04240F29980E9
:10042800023F6444241A1FFA88F3B4FBF2F002FB7B
:10043800104443EA044300FB06F69E4209D91CEB2C
:10044800030300F1FF3480F082809E427FD9023896
:10045800634440EA0740A0FB09749B1BA3423E4645
:10046800A04664D361D0BEF1000F0AD0BAEB0602F1
:1004780063EB080303FA05F5CA401543CB40CEE900
:10048800005300213FE7730843EAC1734A08190C77
:1004980041EA02414FEAC67C9BB2B2FBF4F0264621
:1004A800A04627461F2243EA0143B1FBF4F1A3EB20
:1004B800080341EA004158E72946FFE6284615E7C0
:1004C8001A46C3F120019C4026FA01F320FA01F1F3
:1004D80090400343270C06FA02FCB1FBF7F0A6B2E2
:1004E80007FB1015190C41EA054100FB06F58D4282
:1004F8003BD9611801D28D4220D8491B0138B1FB84
:10050800F7F5019505FB06F8019D9BB207FB151150
:1005180043EA0143434526D2E31805F1FF31C6D229
:100528004345C4D2A91E2344C1E7BA459BD2B7EBC1
:10053800090664EB0C040138A04694E7651B2944BE
:100548000238B1FBF7F5019505FB06F8DCE7204614
:100558007FE71F4666E70846F4E6A44402382FE71B
:10056800023D234415E70199A1E7491BB1FBF7F5C3
:10057800019505FB06F8C7E7704700BFF0B589B0DD
:1005880003AD0024039404940594069407940194FD
:10059800184B1A6B42F004021A631A6B02F0040239
:1005A8000192019A02941A6B42F002021A631B6BC1
:1005B80003F002030293029B0F4F22464FF40051AF
:1005C800384602F07AFB4FF4005303930126049651
:1005D800059406942946384602F078FA4FF4704399
:1005E80003930494059606942946044802F06EFA8B
:1005F80009B0F0BD00380240000802400004024083
:1006080072B6FEE710B594B008AC3022002120463F
:1006180003F0F7FC002303930493059306930793D1
:1006280001931F4A116C41F080511164126C02F061
:1006380080520192019A02931A4B1A6842F440427E
:100648001A601B6803F440430293029B0323089338
:100658004FF48033099301230B9310230C93022347
:100668000E934FF480020F920F2210929022119253
:10067800129305231393204601F020FF60B90F233E
:1006880003930146049005900690079003A802F092
:1006980067F918B914B010BDFFF7B2FFFFF7B0FF44
:1006A800003802400070004000B587B002F0B2FB8D
:1006B800FFF7A8FFFFF762FF00F06CF805E04FF4C2
:1006C8000051194802F0F2FAC0B14FF480511648AF
:1006D80002F0ECFA0028F2D101AC144D0FCD0FC492
:1006E8002B68238001AC2046FFF796FD81B2204697
:1006F80000F03AF9C82002F0B9FBE0E70DF1040C6C
:100708000B4C0FCCACE80F002368ACF8003001AC00
:100718002046FFF781FD81B2204600F025F9C82068
:1007280002F0A4FBD1E700BF000402407C400008AF
:1007380090400008FEE7FEE7FEE7FEE7FEE77047A9
:100748007047704708B502F07FFB08BD08B502483E
:1007580000F0ACFD08BD00BF1018002082B00021D9
:1007680000910B4B5A6C42F480425A645A6C02F462
:1007780080420092009A01911A6C42F080521A64E9
:100788001B6C03F080530193019B02B0704700BFBC
:100798000038024008B500220F49104802F084FBD7
:1007A80070B90F490D4802F096FB60B90D490B4826
:1007B80003F0A1FB50B9094802F0ADFB48B908BDE8
:1007C800FFF71EFFEDE7FFF71BFFEFE7FFF718FF47
:1007D800F1E7FFF715FFF2E73400002014010020CD
:1007E800B40000205000002012230B8000487047FE
:1007F8002000002004230B80004870471C000020C4
:10080800002393421DD200B510E00CF1370C01F81B
:1008180013C000014FEA430C0CF1010C4FF0000E1D
:1008280001F80CE00133DBB2934209D24FEA107CA5
:10083800B0F1204FE9D20CF1300C01F813C0E8E711
:1008480000BD70470B4BD3F8100AD3F8142AD3F81D
:10085800183AC01800D1704710B514460822064946
:10086800FFF7CEFF0422044B03F110012046FFF7E7
:10087800C7FF10BD0070FF1F0200002008B51A2333
:100888000B80FFF7DFFF014808BD00BF0000002014
:1008980008B50A4628B90549054803F0A6F80348EB
:1008A80008BD0249024803F0A0F8F8E7F003002069
:1008B800A440000810B50A46034C2146034803F03B
:1008C80094F8204610BD00BFF0030020BC4000088B
:1008D80008B50A4628B90549054803F086F80348CB
:1008E80008BD0249024803F080F8F8E7F003002049
:1008F800D040000808B50A4628B90549054803F05C
:1009080074F8034808BD0249024803F06EF8F8E796
:10091800F0030020DC4000080020704700207047EA
:100928000020704710B50146044C204603F0FCFA3D
:10093800204603F020FB002010BD00BF140100205A
:1009480010B5064C00220649204603F0DFFA054997
:10095800204603F0E9FA002010BD00BF1401002072
:10096800F0050020F00D002008B5084BD3F8BC3284
:10097800D3F814320BB1012008BD0A4601460348DA
:1009880003F0C4FA014803F0DBFAF5E7140100208C
:1009980030B589B000230393049305930693079316
:1009A8000368B3F1A04F01D009B030BD03AA0025F8
:1009B8000195174C236B43F001032363236B03F06A
:1009C80001030193019B4FF4C05303930223049343
:1009D800032306930A23079311460E4802F076F87C
:1009E800636B43F0800363630295636C43F4804355
:1009F8006364636C03F480430293029B2A4629468E
:100A0800432002F0B9F9432002F0C6F9CCE700BF51
:100A1800003802400000024008B500F29C41D0F8BE
:100A2800E00402F08EFA08BD08B501EBC10300EB43
:100A38008303D3F86022D0F8E00402F051FB08BD2C
:100A480008B501EBC10300EB83031A6AD0F8E00490
:100A580002F0A9FB08BD08B5D0F8E00402F0EEFAF0
:100A680008BD10B50446C379022B09D10121D4F879
:100A7800E00402F0C6FAD4F8E00402F08EFA10BDE1
:100A8800FFF7BEFDF2E7000010B50446D0F8E00419
:100A980002F0BAFA2268D2F8003E43F00103C2F825
:100AA800003EE37A23B1034A136943F00603136156
:100AB80010BD00BF00ED00E008B5D0F8E00402F07A
:100AC800B1FA08BD08B5D0F8E00402F0DDFA08BDB7
:100AD80008B5D0F8E00402F0C1FA08BD08B5D0F8AE
:100AE800E00402F0E7FA08BD08B5D0F8E00402F027
:100AF800E3FA08BD02780AB10020704708B503463A
:100B08001448C0F8E034C3F8C8024FF0A0430360AB
:100B1800042303710222C27100238371427283721B
:100B2800C37203738373C37300F0EDF878B980213F
:100B3800084800F0D9FE40220021064800F0AFFE28
:100B480080220121034800F0AAFE002008BDFFF71B
:100B580057FDECE710180020D0F8C83211F0800FCC
:100B680008D101F07F0101EBC10103EB810393F888
:100B78005602704701F07F0101EBC10103EB8103CD
:100B8800987D704708B5D0F8C80200F0CAFA08BDC9
:100B980000487047F01500207047022804D005D897
:100BA80008B1032070477047012070470320704741
:100BB80008B5D0F8C80200F02BF9FFF7EEFF08BD22
:100BC80008B594461A466346D0F8C80200F001FA00
:100BD800FFF7E3FF08BD08B5D0F8C80200F044FAF3
:100BE800FFF7DBFF08BD08B5D0F8C80200F0C7FA68
:100BF800FFF7D3FF08BD08B5D0F8C80200F002FB24
:100C0800FFF7CBFF08BD08B5D0F8C80200F0CEF951
:100C1800FFF7C3FF08BD08B5D0F8C80200F08AFA8C
:100C2800FFF7BBFF08BD08B5D0F8C80200F054FABA
:100C3800FFF7B3FF08BD2DE9F04383B0D0F800807B
:100C480001EBC10300EB83039A6A5B6A9A4254D8AA
:100C580007460C469B1A01EBC10200EB8202D269DF
:100C68009A4200D31A4602F103094FEA990915E09E
:100C780006F103094FEA990904EBC40507EB85055A
:100C8800296ABB790093B3B2E2B2404601F076F923
:100C98002B6A33442B62AB6A3344AB6208EB4413D0
:100CA80003F510639B699BB24B4512D304EBC40355
:100CB80007EB83039A6A5B6A9A420AD24BB19B1A82
:100CC80004EBC40207EB8202D6699E42D0D31E46CB
:100CD800CEE704EBC40307EB83077A6ABB6A9A4240
:100CE8000FD804F00F040122A240D8F8343823EAC0
:100CF8000203C8F83438002000E0012003B0BDE842
:100D0800F0830020FAE730B583B000287DD0044690
:100D180003681D4690F89534CBB1032384F89534C5
:100D2800B5F1A04F18D0206800F0D0FE237C8DF8D4
:100D38000030231D0ECB206800F007FE78B1022397
:100D480084F8953401231D46284603B030BD80F849
:100D58009434FFF71DFEE0E70023A371E3E70146A3
:100D6800206801F03EFB0246B8B903462079984254
:100D780019D903EBC30104EB8101012048750B75F8
:100D8800CB8500200876C861086203EBC30104EB39
:100D9800810148620133DBB2E8E7022384F8953425
:100DA80001231D46D0E7904217D902EBC20304EB9A
:100DB8008303002183F8551283F8542283F85812CC
:100DC800C3F85C12C3F8601202EBC20304EB83039E
:100DD800C3F864120132D2B2E5E7237C8DF8003003
:100DE800231D0ECB206800F0C7FE054628B102235C
:100DF80084F8953401231D46A6E76074012384F81E
:100E08009534206801F0ACFA9EE701231D469BE764
:100E1800036890F89424012A1AD010B504460122D8
:100E280080F89424DA6812F0400F02D0427B012A3D
:100E380009D0206800F044FE206801F083FA002001
:100E480084F8940410BD9A6B42F480329A63F0E7F8
:100E58000220704738B504460D460068D0F840C0F7
:100E680000EB411303F530639A68A179012911D089
:100E780038498C4556D03DB905EBC50304EB8303CF
:100E8800D3F86432002B5ED0E9B22046FFF7CCFDE0
:100E9800002038BD12F0080F09D02F498C45F7D92A
:100EA80012F4004FF4D04FF400429A60F0E712F0C9
:100EB800200F02D020229A60EAE712F0280FE7D12B
:100EC80025498C4506D912F4004F03D04FF400424F
:100ED8009A60DDE705EBC50204EB8202D2F87412D2
:100EE8001B69C3F31203CB1AC2F868327DB905EB4C
:100EF800C50204EB8202D2F864226AB105EBC5028E
:100F080004EB8202D2F860121944C2F86012E9B206
:100F18002046FFF789FDBBE704F29C42012101F05E
:100F28009FFAF4E712F4004F03D04FF400429A609E
:100F3800AEE712F0200F01D020229A60E9B22046D5
:100F4800FFF772FDA4E704F29C42194601F088FA03
:100F58009AE700BF0A31544F0A30544F38B5044657
:100F680003681D6C03EB4113D3F8081B0E4A954226
:100F780007D903F5306311F4004F02D04FF4004253
:100F88009A602046FFF748FD074B9D4202D9A37996
:100F9800012B01D0002038BD04F29C4201212068B9
:100FA80001F05EFAF6E700BF0A30544F90F8943427
:100FB800012B0CD010B50446012380F894344174F9
:100FC800006801F0AFF9002084F8940410BD0220F5
:100FD800704710B50446084611F0800F2ED101F075
:100FE8000F0E0EEBCE0C4FEA8C0C0CF5147CA444BF
:100FF8000CF104010EEBCE0E04EB8E0E4FF0000C3C
:101008008EF855C200F00F0C81F800C0C2F30A0236
:101018008A600B714A780AB1A1F81AC0022B1ED057
:1010280094F89434012B1DD0012384F8943420685B
:1010380000F083FE002084F8940410BD01F00F0C2A
:101048000CEBCC0189001031214404310CEBCC0CA1
:1010580004EB8C0C4FF0010E8CF815E0D2E700235E
:101068004B71DDE70220E8E710B504460A4611F0A7
:10107800800F20D101F00F0000EBC0039B0003F5A7
:1010880014732344191D00EBC00004EB80000023F7
:1010980080F8553202F00F020A7094F89434012B4C
:1010A80018D0012384F89434206800F097FE0020BB
:1010B80084F8940410BD01F00F0000EBC0039B00FE
:1010C80010332344191D00EBC00004EB80000123FA
:1010D8004375DFE70220EDE708B501F00F0C0CEBD4
:1010E800CC01890001F51471014404310CEBCC0EDC
:1010F80000EB8E0ECEF86022CEF864320023CEF8D4
:1011080068328EF855328EF854C28379012B05D097
:101118001A46006800F04AFF002008BDCEF8702289
:10112800F6E701F00F0101EBC10100EB8100D0F8F7
:101138006802704708B501F00F0C0CEBCC01890070
:101148001031014404310CEBCC0E00EB8E0ECEF8BE
:101158002020CEF824300023CEF8283001238EF842
:1011680015308EF814C08379012B05D01A46006813
:1011780000F01CFF002008BDCEF83020F6E738B597
:1011880001F00F050279AA4238D304460B4611F044
:10119800800F1FD101EBC101890001F514710144D1
:1011A800043103EBC30300EB8303002283F85522C9
:1011B80001238B700D7094F89434012B20D00123F7
:1011C80084F89434206801F052F885B1002084F83E
:1011D800940438BD05EBC501890010310144043180
:1011E80005EBC50300EB830301225A75E0E704F21F
:1011F8009C42A179206801F033F9E7E70120E8E78C
:101208000220E6E701F00F0302799A4230D310B5C5
:10121800044611F0800F1ED103EBC301890001F5CC
:1012280014710144043103EBC30200EB8202002075
:1012380082F8550200228A700B7094F89434012BBE
:1012480018D0012384F89434206801F03DF8002078
:1012580084F8940410BD03EBC301890010310144E4
:10126800043103EBC30200EB820201205075E1E771
:10127800012070470220EDE708B511F0800F0CD16E
:1012880001F00F0101EBC101890001F5147101445E
:101298000431006800F014FE08BD01F00F0101EBF5
:1012A800C1018900103101440431F2E72DE9F04F02
:1012B80083B004460568284601F08FF810B103B0E2
:1012C800BDE8F08F8046206801F058F80028F6D075
:1012D80005F500639B46D5F80838C3F30D23C4F819
:1012E800D434206801F04AF810F0020F04D02268C4
:1012F800536903F002035361206801F03FF810F0CE
:10130800100F15D02268936923F0100393612E6A99
:1013180006F00F031F4606F4F013B3F5802F4DD0E7
:10132800B3F5402F70D02268936943F0100393619E
:10133800206801F023F810F4002F7BD1206801F019
:101348001DF810F4802F40F0E680206801F016F8B0
:101358000028C0F26981206801F010F810F4006FCD
:101368000AD0DBF8083013F0010F40F077812268CB
:10137800536903F400635361206800F0FFFF10F421
:10138800805F40F06F81206800F0F8FF10F4005F84
:1013980040F0C881206800F0F1FF10F0080F40F01D
:1013A800D981206800F0EAFF10F0800F00F0EC818E
:1013B800AB6923F08003AB610126D5E147F6F073F2
:1013C8001E42B0D033090093FA00019207EBC7031D
:1013D80004EB8301C6F30A120E46D1F860122846C0
:1013E80000F022FFD6F86022009BC3F30A031A44D8
:1013F800C6F86022D6F86812019A3A4404EB8202D1
:101408000B44C2F868328EE7082204F29C41284651
:1014180000F00AFF07EBC70304EB8303D3F8681255
:10142800C6F30A1307EBC70204EB82020B44C2F8A7
:10143800683278E7206800F0A5FF0646474635E0A1
:10144800394605EB47130122C3F8082B2046FFF75E
:1014580001FD3BE0394605EB47130822C3F8082B8A
:101468002046FFF77BFD34E007EBC70304EB83035B
:1014780093F85732012B42D005EB47130222C3F8E9
:10148800082B19F0200F04D005EB47132022C3F8CE
:10149800082B19F4005F05D005EB47134FF40052F1
:1014A800C3F8082B3B4601331F467608002E3FF44D
:1014B80045AF16F0010FF5D0FBB29A4619462068E1
:1014C80000F070FF814610F0010FB9D119F0080F34
:1014D800C0D119F0100F04D005EB47131022C3F840
:1014E800082B19F0020FCCD06B6913F0800FBBD01A
:1014F800DBF8043043F48063CBF80430B4E707EB3F
:10150800C70304EB8303002283F857225146204681
:10151800FFF7D8FAB0E7206800F03CFF0646C1465E
:1015280025E000992046FFF78BFA1AF0080F04D03F
:1015380005EB49130822C3F808291AF0100F04D044
:1015480005EB49131022C3F808291AF0400F04D0FC
:1015580005EB49134022C3F808291AF0020F42D1BB
:101568001AF0800F5BD14B46013399467608002E5E
:101578003FF4EBAE16F0010FF5D05FFA89F3009354
:101588001946206800F017FF824610F0010FCCD0F2
:10159800484609F00F02012101FA02F2DBF8343063
:1015A80023EA0203CBF8343005EB4913C3F80819D2
:1015B800A3798B42B5D109EBC90304EB83031A6AFB
:1015C800D9690A441A620028ABD109EBC90304EBB4
:1015D80083035B6A002BA4D104F29C42012120689A
:1015E80000F03EFF9DE74946284600F075FA09EBF2
:1015F800C90304EB8303DB7D012B05D005EB4913FD
:101608000222C3F80829ABE709EBC90304EB8303FB
:101618000022DA7500992046FFF75AFAEEE74946A4
:101628002046FFF708FB9EE7DBF8043023F00103B0
:10163800CBF8043094F8CC34012B08D02046FFF7BF
:101648003BFA2268536903F00043536183E60021A3
:1016580084F8CC14204600F04BF9F2E72046FFF757
:1016680013FA84E6DBF8043023F00103CBF80430E6
:101678001021206800F030FA1CE0404605EB4813C2
:101688004FF67F31C3F80819D3F8002922F4001265
:10169800C3F80029C3F8081BD3F8002B22F4001262
:1016A800C3F8002BD3F8002B42F00062C3F8002BDC
:1016B800431C984623794345DFD8DBF81C3043F0B8
:1016C8000113CBF81C30E37BEBB1DBF8843043F03B
:1016D8000B03CBF88430DBF8443043F00B03CBF832
:1016E8004430D5F8003823F4FE63C5F8003804F216
:1016F8009C42A179206800F0B3FE2268536903F484
:10170800805353613FE6DBF8143043F4005343F051
:101718002B03CBF81430DBF8103043F00B03CBF875
:101728001030DEE7206800F08DFE206800F0F4FA43
:10173800E071266801F0C4F90146E279304600F00C
:101748004DF92046FFF78DF92268536903F40053D9
:1017580053611FE62046FFF77EF92268536903F0BC
:10176800080353611DE601362379B3420CD906EB11
:10177800C60304EB830393F85732012BF3D1F1B27C
:101788002046FFF779FDEEE7206800F0F7FD10F43A
:10179800801F25D1206800F0F1FD10F4001F5AD0F9
:1017A800012326E001362379B3421BD905EB461302
:1017B800D3F8002906EBC60304EB83031B7E012B39
:1017C800F0D1002AEEDA06EBC60304EB830301220C
:1017D800DA7566F07F01C9B22046FFF74DFDE1E7F3
:1017E8000126E0E72268536903F480135361D1E7C7
:1017F800013322799A4229D905EB4312D2F8001B0A
:1018080003EBC30204EB820292F85822012AEFD1BB
:101818000029EDDAD4F8D42482EA114212F0010F3B
:10182800E6D103EBC30204EB8202012182F85712CE
:10183800AA6942F08002AA616A6912F0800FD7D1C2
:10184800DBF8043043F40073CBF8043022685369A2
:1018580003F400135361206800F090FD10F0804FEE
:1018680010D1206800F08AFD10F0040F3FF427AD76
:1018780023685D6815F0040F0DD1226853682B4367
:1018880053601CE52046FFF729F92268536903F0E5
:1018980080435361E5E72046FFF726F9EDE700B5F9
:1018A80096460268506A21B940EA0E4090620020CC
:1018B80000BD8C46936A00EB1340002308E003F157
:1018C800400102EB8101496800EB11400133DBB2B2
:1018D8000CF1FF318B42F2D340EA0E400CF13F018C
:1018E80002EB81025060E2E703685962002070470A
:1018F800704782B000230193019B01330193019B40
:10190800B3F1706F1CD80369002BF5DA0A23019331
:1019180002E0019B013B0193019B002BF9D1036974
:1019280043F001030361019B01330193019BB3F170
:10193800706F08D8036913F0010FF4D1002000E09C
:10194800032002B070470320FBE784B010B50446BB
:1019580003A880E80E009DF81130012B21D1A36B5C
:1019680023F48033A363E36823F4840323F0400360
:10197800E360E36823F44013E3609DF81830012B1B
:101988000AD02046FFF7B5FF9DF80E30012B1CD07A
:10199800BDE8104004B07047E36843F48013E36087
:1019A800EFE7E36843F04003E3602046FFF7A1FF59
:1019B8009DF8153023B9A36B43F48033A363E3E7A1
:1019C800A36B23F48033A363DEE7A36843F0060325
:1019D800A360A36843F02003A360D9E7022A0AD0D2
:1019E8000922C36823F47053C360C36843EA82239F
:1019F800C36000207047234B0B44234A93422FD9DE
:101A0800224B0B44224A93422CD9A1F57403A3F527
:101A18001053204A934227D9A1F18373A3F5E743D2
:101A28001D4A934222D31D4B0B441D4A93421FD992
:101A38001C4B0B441C4A93421CD31C4B0B441C4AA2
:101A4800934219D3A1F1B773A3F55853194A934296
:101A580014D3194B0B44194A934211D20722C0E7F9
:101A68000F22BEE70E22BCE70D22BAE70C22B8E728
:101A78000B22B6E70A22B4E70922B2E70822B0E748
:101A88000622AEE7405327FFFF340C00401E1BFF21
:101A98003F420F007F4F120020D6130060B6E5FECC
:101AA8005FE3160000D3CEFE40771B00C05BB3FE99
:101AB800C091210020753800E05459FEE09C410097
:101AC800836843F00103836000207047836823F034
:101AD800010383600020704782B000230193019BBB
:101AE80001330193019BB3F1706F15D80369002B83
:101AF800F5DA00230193890141F020010161019B7E
:101B080001330193019BB3F1706F08D8036913F097
:101B1800200FF4D1002000E0032002B0704703201A
:101B2800FBE782B000230193019B01330193019BE2
:101B3800B3F1706F13D80369002BF5DA0023019312
:101B480010230361019B01330193019BB3F1706F73
:101B580008D8036913F0100FF4D1002000E0032027
:101B680002B070470320FBE7D0F800381943C0F8EB
:101B7800001800207047000084B070B5044605A81E
:101B880080E80E00002306E003F1400204EB820225
:101B98000021516001330E2BF6D99DF81E5005BB6C
:101BA800D4F8043843F00203C4F80438A36B43F4B0
:101BB8000013A363A36B23F40023A363A36B23F491
:101BC8008023A3630023C4F8003E9DF81930012B3D
:101BD80015D19DF817306BB919462046FFF7C4FF99
:101BE80011E0A36B23F40013A363A36B43F4002356
:101BF800A363E7E701212046FFF7B6FF03E00321CF
:101C08002046FFF7B1FF10212046FFF765FF064683
:101C180008B101231E462046FFF783FF08B10123C0
:101C28001E4604F5006C0023CCF81030CCF81430B4
:101C3800CCF81C300DE04FF09040C2F8000902E0EB
:101C48000020C2F8000900220A614FF67F328A603C
:101C580001339DF8141099420ED904EB431202F592
:101C68001061D2F800090028EADA002BE3D14FF01E
:101C78000060C2F80009E6E700230AE0CBB14FF0A4
:101C8800904EC2F800EB002202614FF67F3282606C
:101C98000133994212D904EB431202F53060D2F8AD
:101CA80000EBBEF1000FE9DB4FF0000EC2F800EBCD
:101CB800E9E74FF0006EC2F800EBE4E7DCF810301B
:101CC80023F48073CCF810300023A3616FF08043B5
:101CD80063619DF816301BB9A36943F01003A36133
:101CE800A2690C4B1343A3619DF81A301BB1A36979
:101CF80043F00803A361012D04D03046BDE87040CD
:101D080004B07047A36943F0804343F00403A36120
:101D1800F3E700BF00383C80D0F8083813F006031A
:101D280007D0022B07D0062B01D00F2070470220C6
:101D38007047002070470220704710B591F800C026
:101D48004B78012B24D000F5006ED0F81C380CF02D
:101D58000F02012404FA02F243EA0243C0F81C38D5
:101D680000EB4C10D0F8003B13F4004F0ED1D0F824
:101D7800003B8A68C2F30A02097942EA81421343A6
:101D880043F0805343F40043C0F8003B002010BDEB
:101D980000F5006ED0F81C280CF00F03012404FA9B
:101DA80003F39BB21343C0F81C3800EB4C10D0F877
:101DB800003913F4004FE9D1D0F800398A68C2F32A
:101DC8000A02097942EA814242EA8C52134343F0FB
:101DD800805343F40043C0F80039D7E700B50B78C7
:101DE8004A78012A25D000EB4313D3F8002B002AA8
:101DF80054DBD0F83CE80A7802F00F024FF0010CEF
:101E08000CFA02F22EEA0242C0F83C28D0F81C284C
:101E1800097801F00F010CFA01FC22EA0C42C0F823
:101E28001C28D3F8001B244A0A40C3F8002B0020C2
:101E380000BD00EB4313D3F80029002A21DBD0F8BA
:101E48003CE80A7802F00F024FF0010C0CFA02F29B
:101E580092B22EEA0202C0F83C28D0F81C28097871
:101E680001F00F010CFA01FC1FFA8CFC22EA0C02AB
:101E7800C0F81C28D3F80019104A0A40C3F80029F2
:101E8800D5E7D3F8002942F00062C3F80029D3F857
:101E9800002942F08042C3F80029D0E7D3F8002B8C
:101EA80042F00062C3F8002BD3F8002B42F08042C6
:101EB800C3F8002B9DE700BF0078F3EF007833EC00
:101EC80082B00246002301934878012809D00B7894
:101ED80002EB4313D3F8000B00282DDB002002B0DF
:101EE80070470B7802EB4313D3F800C9BCF1000F1D
:101EF80001DB0020F3E7D3F800C94CF0006CC3F80D
:101F080000C90B7802EB4313D3F800C94CF0804C9E
:101F1800C3F800C9019B01330193DDF804C042F204
:101F280010739C45DBD80B7802EB4313D3F80039C8
:101F3800002BEFDB0020D2E7D3F8000B40F0006065
:101F4800C3F8000B0B7802EB4313D3F8000B40F0F7
:101F58008040C3F8000B019B01330193019842F2C2
:101F68001073984208D80B7802EB4313D3F8003B60
:101F7800002BF0DB0020B2E70120B0E710B50446E3
:101F88009DF8080078B903334FEA930E844608E0B9
:101F980004EB023303F5805351F8040B18600CF17D
:101FA800010CF445F4D3002010BD000070B582B0D8
:101FB80016460A784B78012B31D000EB421E0EF5FD
:101FC8003063D3F810C06FF3120CC3F810C0D3F805
:101FD80010C06FF3DC4CC3F810C0002A40F0E68054
:101FE8000A690AB18A680A618A680A621C69C2F3C6
:101FF800120222431A611A6942F400221A61012E60
:1020080000F0F7800B79012B00F0F980DEF8003B37
:1020180043F00443CEF8003B002002B070BD0B69CA
:102028007BBB00EB4213D3F810E96FF3DC4EC3F827
:1020380010E9D3F810E94EF4002EC3F810E9D3F8EC
:1020480010E96FF3120EC3F810E9012E6CD000EB03
:102058004212D2F8003943F00443C2F800390B7930
:10206800012B00F08A800B69002BD5D0D0F83438CA
:10207800097801F00F0101228A401343C0F834386F
:10208800CAE700EB421303F51063D3F810E06FF3CF
:10209800120EC3F810E0D3F810E06FF3DC4EC3F86B
:1020A80010E0B2B9D1F808E00C69744501D9C1F85B
:1020B80010E0D3F810E04EF4002EC3F810E0D3F887
:1020C80010E00C69C4F3120C4EEA0C0EC3F810E0D1
:1020D800BBE7D1F808C00C6904EB0C0E0EF1FF3E0B
:1020E800BEFBFCFED3F810C01FFA8EF425464D4CFB
:1020F80004EACE4E4CEA0E0EC3F810E091F804E064
:10210800BEF1010FDBD1D3F810E02EF0C04EC3F8BA
:1021180010E0D3F810C04FEA457E0EF0C04E4CEAEE
:102128000E0EC3F810E0CAE7CB691BB100EB421CE6
:10213800CCF814390B79012B08D000EB4212D2F8F5
:10214800003943F00443C2F8003965E7D0F808388D
:1021580013F4807F08D100EB4211D1F8003943F025
:102168000053C1F80039E8E700EB4211D1F8003913
:1021780043F08053C1F80039DFE7D0F8083813F48A
:10218800807F0CD1D2F8003943F00053C2F80039EF
:1021980000960B8A0A78C968FFF7F0FE3CE7D2F888
:1021A800003943F08053C2F80039F1E70A6952B99F
:1021B8001A698C68C4F3120422431A611A6942F43A
:1021C80000221A611BE78C682244013AB2FBF4F240
:1021D80092B202FB04F40C621C69124D05EAC24279
:1021E80022431A611A690C6AC4F3120422431A6161
:1021F80005E7CA68002A3FF405AF5A6102E7D0F83C
:10220800083813F4807F06D1DEF8003B43F0005312
:10221800CEF8003BFAE6DEF8003B43F08053CEF8F8
:10222800003BF3E60000F81F00B5844608464FEA75
:10223800920E02F00302002305E00CF580510968B4
:1022480040F8041B01337345F7D37AB10CF5805C71
:10225800DCF800C00021CBB2DB002CFA03F300F855
:10226800013B0131013A92B2002AF4D100BD0B784A
:102278004A78012A14D000EB4310D0F8002B002A2A
:1022880006DB2BB1D0F8003B23F08043C0F8003BBD
:10229800D0F8003B43F40013C0F8003B002070471F
:1022A80000EB4310D0F80029002A06DB2BB1D0F848
:1022B800003923F08043C0F80039D0F8003943F4DE
:1022C8000013C0F80039E9E70B784A78012A0ED0E4
:1022D80000EB4310D0F8003B23F40013C0F8003B98
:1022E8000B79023BDBB2012B15D90020704700EBBC
:1022F8004310D0F8003923F40013C0F800390B79E3
:10230800023BDBB2012BF0D8D0F8003943F0805300
:10231800C0F80039E9E7D0F8003B43F08053C0F833
:10232800003BE2E7D0F8003823F4FE63C0F8003839
:10233800D0F80038090101F4FE610B43C0F80038F9
:1023480000207047D0F8003E23F00303C0F8003E99
:10235800D0F8043823F00203C0F80438002070478E
:10236800D0F8003E23F00303C0F8003ED0F804384C
:1023780043F00203C0F804380020704742698069BE
:1023880010407047D0F8183800F50060C069184050
:10239800000C7047D0F8183800F50060C069184084
:1023A80080B2704700EB4111D1F8082B00F50060AE
:1023B800406910407047D0F81028D0F8343801F040
:1023C8000F0C23FA0CF3DB01DBB2134300EB4110D3
:1023D80000F51060806818407047406900F00100FF
:1023E800704738B50546C36823F0C043C360012968
:1023F80013D019BBC36843F08043C3600C460A205E
:1024080000F034FD0A342846FFF7E7FF08B1C72C6F
:10241800F5D9C82C14D0002038BDC36843F0005348
:10242800C36000240A2000F021FD0A342846FFF783
:10243800D4FF0128EDD0C72CF4D9EAE70120EBE757
:102448000120E9E7D0F800396FF30A03C0F8003932
:10245800D0F8043843F48073C0F80438002070477B
:102468008C46016C144B994203D9D0F8003B002BE1
:1024780017DB0021C0F8101BD0F8101B41F4002115
:10248800C0F8101BD0F8101B41F01801C0F8101B41
:10249800D0F8101B41F0C041C0F8101BBCF1010F6F
:1024A80001D000207047C0F8142BD0F8003B43F04F
:1024B8008023C0F8003BF4E70A30544F002800F0AE
:1024C800E28170B582B00446036813F0010F3BD077
:1024D8009B4B9B6803F00C03042B2CD0984B9B68F8
:1024E80003F00C03082B21D06368B3F5803F4FD06D
:1024F800B3F5A02F52D0924B1A6822F480321A609A
:102508001A6822F480221A606368002B50D000F009
:10251800A7FC05468A4B1B6813F4003F14D100F052
:102528009FFC401B6428F5D90320B3E1844B5B680A
:1025380013F4800FD8D0824B1B6813F4003F03D0EC
:102548006368002B00F0A181236813F0020F54D0B8
:102558007B4B9B6813F00C0F3ED0794B9B6803F0C4
:102568000C03082B33D0E368002B68D0754B01228D
:102578001A6000F075FC0546714B1B6813F0020FDA
:1025880054D100F06DFC401B0228F5D9032081E1ED
:102598006B4A136843F480331360B5E7684B1A68D5
:1025A80042F480221A601A6842F480321A60ABE75B
:1025B80000F056FC0546624B1B6813F4003FC3D07D
:1025C80000F04EFC401B6428F5D9032062E15C4B07
:1025D8005B6813F4800FC6D1594B1B6813F0020FC8
:1025E80003D0E368012B40F05281554A136823F069
:1025F800F803216943EAC1031360236813F0080F45
:1026080042D063696BB34F4B0122C3F8802E00F0B0
:1026180027FC05464A4B5B6F13F0020F34D100F0DC
:102628001FFC401B0228F5D9032033E1444A1368F4
:1026380023F0F803216943EAC1031360DDE7414B46
:1026480000221A6000F00CFC05463D4B1B6813F095
:10265800020FD2D000F004FC401B0228F5D9032059
:1026680018E1384B0022C3F8802E00F0F9FB05462C
:10267800334B5B6F13F0020F06D000F0F1FB401BE9
:102688000228F5D9032005E1236813F0040F79D057
:102698002B4B1B6C13F0805F34D100230193284B24
:1026A8001A6C42F080521A641B6C03F08053019339
:1026B800019B01231E46244B1B6813F4807F24D002
:1026C800A368012B35D0052B40D01D4B1A6F22F083
:1026D80001021A671A6F22F004021A67A368002B16
:1026E8003ED000F0BDFB0546154B1B6F13F0020FE3
:1026F80047D100F0B5FB401B41F288339842F3D92B
:102708000320C7E000231E46D5E70F4A136843F4A9
:102718008073136000F0A4FB05460B4B1B6813F491
:10272800807FCDD100F09CFB401B0228F5D9032007
:10273800B0E0034A136F43F001031367CEE700BF0D
:10274800003802400000474200700040584B1A6FA2
:1027580042F004021A671A6F42F001021A67BDE7D5
:1027680000F07EFB0546524B1B6F13F0020F08D09A
:1027780000F076FB401B41F288339842F3D90320DE
:1027880088E0EEB9A369002B00F08380484A92687C
:1027980002F00C02082A51D0022B17D0454B002218
:1027A8001A6600F05DFB0446414B1B6813F0007F7E
:1027B80042D000F055FB001B0228F5D9032069E040
:1027C8003B4A136C23F080531364DBE7394B002238
:1027D8001A6600F045FB0546354B1B6813F0007F71
:1027E80006D000F03DFB401B0228F5D9032051E03C
:1027F800E369226A1343626A43EA8213A26A5208AF
:10280800013A43EA0243E26A43EA0263284A536010
:10281800284B01221A6600F023FB0446244B1B6850
:1028280013F0007F06D100F01BFB001B0228F5D92E
:1028380003202FE000202DE000202BE0012B2BD0DF
:102848001B4B5B6803F48001E269914226D103F0D7
:102858003F02216A8A4223D1616A47F6C0721A4050
:10286800B2EB811F1ED103F44031A26A5208013A2B
:10287800B1EB024F18D103F07063E26AB3EB026F59
:1028880014D1002006E001207047012002E0012059
:1028980000E0184602B070BD0120FBE70120F9E70F
:1028A8000120F7E70120F5E70120F3E70120F1E730
:1028B800003802400000474208B5264B9B6803F0E9
:1028C8000C03042B41D0082B41D1224B5A6802F04B
:1028D8003F025B6813F4800F12D01E4B5968C1F396
:1028E80088111D480023A1FB0001FDF79DFC194B31
:1028F8005B68C3F3014301335B00B0FBF3F008BD31
:10290800144B5868C0F388104FEA401CBCEB000C0D
:102918006EEB0E0E4FEA8E1343EA9C634FEA8C115E
:10292800B1EB0C0163EB0E03DB0043EA5173C90002
:1029380011EB000C43F10003990200234FEA8C20AD
:1029480041EA9C51FDF770FCD1E70348D7E70348FB
:10295800D5E700BF0038024040787D010024F4002C
:10296800002800F09B8070B50D4604464F4B1B684D
:1029780003F007038B4208D2CBB24C4A137013689A
:1029880003F007038B4240F08B80236813F0020F9B
:1029980017D013F0040F04D0454A936843F4E0536A
:1029A8009360236813F0080F04D0414A936843F4F6
:1029B800604393603E4A936823F0F003A1680B4399
:1029C8009360236813F0010F32D06368012B21D084
:1029D8009A1E012A25D9364A126812F0020F61D0D0
:1029E80033498A6822F0030213438B6000F038FAF7
:1029F80006462F4B9B6803F00C036268B3EB820F0B
:102A080016D000F02DFA801B41F288339842F0D995
:102A1800032042E0264A126812F4003FE0D1012068
:102A28003BE0234A126812F0007FD9D1012034E03C
:102A38001E4B1B6803F00703AB4207D9EAB21B4BD6
:102A48001A701B6803F00703AB422DD1236813F0FB
:102A5800040F06D0164A936823F4E053E1680B4349
:102A68009360236813F0080F07D0114A936823F482
:102A78006043216943EAC1039360FFF71DFF0C4BD4
:102A88009B68C3F303130B4AD35CD8400A4B186006
:102A98000A4B186800F098F9002070BD01207047B3
:102AA8000120FAE70120F8E70120F6E7003C0240A0
:102AB80000380240EC4000086C000020680000204C
:102AC800014B1868704700BF6C00002070B582B0D9
:102AD8008E46002369E085684FEA430C032101FA1A
:102AE8000CF125EA0105DEF80C1001FA0CF1294376
:102AF8008160416821EA0201DEF80420C2F3001275
:102B08009A400A43426064E0D908083150F821200D
:102B180003F00705AD004FF00F0C0CFA05FC22EA94
:102B28000C0CDEF81020AA4042EA0C0240F82120E2
:102B380066E0042200E0002202FA0CF22A43023185
:102B4800564D45F82120564A9168E24321EA04058A
:102B5800DEF8046016F4801F01D044EA01055049EC
:102B68008D60C96802EA0105DEF8046016F4001FEA
:102B780001D044EA01054A49CD60496802EA0105E5
:102B8800DEF8046016F4003F01D044EA0105444928
:102B98004D6009680A40DEF8045015F4803F01D002
:102BA80044EA01023E490A6001330F2B74D801221E
:102BB8009A40DEF8001001EA020432EA0101F3D17A
:102BC800DEF8041001F0030C0CF1FF3CBCF1010F1E
:102BD80081D9DEF8042002F00302032A0AD0C16872
:102BE8005D000322AA4021EA0201DEF80820AA407B
:102BF8000A43C260DEF8042002F00302022A83D0EE
:102C080001684FEA430C032202FA0CF221EA02019E
:102C1800DEF8042002F0030202FA0CF20A43026012
:102C2800DEF8042012F4403FBED0002201921D4A73
:102C3800516C41F480415164526C02F4804201921B
:102C4800019A99088D1C154A52F8255003F0030C77
:102C58004FEA8C0C0F2202FA0CF225EA0205124AFE
:102C680090423FF468AF02F5806290420ED002F5C0
:102C7800806290420CD002F5806290420AD002F540
:102C8800806290423FF455AF072255E7012253E78F
:102C9800022251E703224FE702B070BD003801401D
:102CA800003C01400038024000000240036919421C
:102CB80001D001207047002070470AB18161704738
:102CC8000904816170470000002807DB00F01F023B
:102CD800400901239340024A42F82030704700BF60
:102CE80000E100E0002808DB0901C9B200F16040FA
:102CF80000F5614080F80013704700F00F000901EB
:102D0800C9B2014B1954704714ED00E000B500F04A
:102D18000700A0F1030CBCF1040F07D8C0F1070E9F
:102D28000430062806D84FF0000C03E04FF0040EDC
:102D38004FF0000C4FF0FF3303FA0EF021EA0001C8
:102D480001FA0CF103FA0CF322EA030241EA020049
:102D580000BD0000074AD36823F4E0631B041B0C82
:102D6800000200F4E060034343F0BF6343F4003320
:102D7800D360704700ED00E010B50446054BD868F5
:102D8800C0F30220FFF7C2FF01462046FFF7AAFF63
:102D980010BD00BF00ED00E008B5FFF795FF08BDC6
:102DA8000138B0F1807F0BD24FF0E0235861054A1B
:102DB800F02182F823100020986107221A617047D9
:102DC8000120704700ED00E010B504460E4B18686E
:102DD8000E4B1A784FF47A73B3FBF2F3B0FBF3F0AF
:102DE800FFF7DEFF68B90F2C01D901200AE002467F
:102DF80021464FF0FF30FFF7BFFF054B1C60002056
:102E080000E0012010BD00BF6C000020640000201D
:102E18006800002008B50B4B1A6842F400721A606B
:102E28001A6842F480621A601A6842F480721A6062
:102E38000320FFF78FFF0F20FFF7C6FFFDF78EFC7B
:102E4800002008BD003C0240034A1168034B1B7870
:102E58000B441360704700BFF41C0020640000207E
:102E6800014B1868704700BFF41C002038B50446B1
:102E7800FFF7F6FF0546B4F1FF3F02D0044B1B787D
:102E88001C44FFF7EDFF401BA042FAD338BD00BF3A
:102E980064000020034AD2F8883043F47003C2F873
:102EA8008830704700ED00E098B108B5034600206F
:102EB800C3F8B802C3F8C402C3F8D00209B1C3F812
:102EC800B412012183F89C121A701846FDF712FEFD
:102ED80008BD0320704710B582B00023ADF8063056
:102EE800B9B10446C0F8B812D0F8D422CB6A43B1BD
:102EF800AE3250F82230DB6A0DF106009847C4F86C
:102F0800D002D4F8D8320133C4F8D832002002B045
:102F180010BD0320FBE708B5FDF74AFE08BD08B55C
:102F2800D0F8B83213B11B68984708BD1846FCE7BB
:102F380008B5D0F8B8325B68984700B908BD0320D7
:102F4800FCE738B5044600F2AA25284600F0C5F982
:102F58000123C4F89432B4F8B032C4F8983294F823
:102F6800AA1201F01F03012B07D0022B0AD073B954
:102F78002946204600F094FB38BD2946204600F03B
:102F8800D0FBF9E72946204600F013FCF4E701F0EE
:102F980080012046FDF727FEEEE7F8B50446012339
:102FA80080F89C320023C0F894324360C0F8A43201
:102FB80080F8A032D0F8B832E3B15B68E3B1002101
:102FC80098470746D0B94023002211462046FDF70E
:102FD800F7FD012684F863614025A4F860512B466B
:102FE800002280212046FDF7EBFD84F8236025842C
:102FF8003846F8BD1F46E6E71F46E4E703231F46A9
:10300800E1E701740020704790F89C32042B04D04B
:1030180090F89C32DBB280F89D32042380F89C3211
:103028000020704790F89C32042B01D00020704794
:1030380090F89D32DBB280F89C32F7E708B590F83B
:103048009C32032B01D0002008BDD0F8B832002BE9
:10305800F9D0DB69002BF6D09847F4E708B5D0F82B
:10306800D432AE3350F8233053B190F89C22032A5F
:1030780001D0002008BD1B6A23B198470020F9E75A
:103088000320F7E71846F5E708B5D0F8D432AE3391
:1030980050F8233053B190F89C22032A01D0002025
:1030A80008BD5B6A23B198470020F9E70320F7E7DA
:1030B8001846F5E70020704708B5012380F89C32D0
:1030C800D0F8B83223B15B680179984710B908BDC8
:1030D8001846FCE70320FAE70020704700207047F5
:1030E80038B504460D46002944D1D0F89432032B54
:1030F80001D0084638BDD0F85831B0F86021934265
:1031080009D890F8AA3203F01F03012B12D0022B22
:103118001ED0084613E09B1AC0F85831D0F8641145
:103128001144C0F864119A4238BF1A4600F0A7FC4F
:103138002846DFE790F8AE12FFF7CEFF18B994F8EB
:103148009C32032B09D0204600F0A1FC2846D1E789
:1031580090F8AE12FFF7C2FFF0E700F1AE0354F8A3
:1031680023301A69002AEED0C4F8D4021B6920461D
:103178009847E8E701F07F01FFF7B0FF88B994F8B6
:103188009C32032BB6D100F1AE0354F823309A6970
:10319800002AAFD0C4F8D4029B6929462046984734
:1031A800A8E70020A6E738B504460D4600294BD10C
:1031B800D0F89432022B07D094F8A00218B100235B
:1031C80084F8A032284638BD8269038C9A420DD80B
:1031D8009A4219D094F89C32032B29D0802120469A
:1031E800FDF701FD204600F05DFCE5E7D21A82619B
:1031F800416A1944416200F029FC00231A46194625
:103208002046FDF710FDD7E742699342E2D8D0F88F
:1032180098329A42DED20022114600F017FC0021B3
:10322800C4F898120B460A462046FDF7FCFCC3E793
:10323800D4F8B832DA68002AD0D00022C4F8D422F0
:10324800DB6820469847C9E741F08001FFF746FF51
:1032580088B994F89C32032BB5D100F1AE0354F829
:1032680023305A69002AAED0C4F8D4025B692946D3
:1032780020469847A7E70020A5E70B880278134463
:103288000B80037818447047428803789A4218D90B
:1032980030B583B004460D46ADF806306388BDF8F6
:1032A80006209A420AD20DF10601FFF7E6FF43789D
:1032B800052BF3D18378AB42F0D100E0002003B0B6
:1032C80030BD002070470346002002E00130C0B244
:1032D80001331A78002AF9D170470B7803704B78BC
:1032E80043708B78CA7843EA022343800B794A7982
:1032F80043EA022383808B79CA7943EA0223C38095
:10330800704710B504468021FDF76DFC002120466A
:10331800FDF769FC10BD30B583B004460D460023A7
:10332800ADF806304A88130A032B47D012D9062B6A
:1033380000F0A080072B40F0AC80037C002B40F00D
:10334800A580D0F8B8321B6B0DF10600984707230B
:10335800437016E0012B0DD0022B40F09A80037CBD
:103368001BBBD0F8B8329B6A0DF1060098470223C0
:10337800437006E0D0F8B4321B680DF10601007CFA
:103388009847EA88002A00F08E80BDF80630002BA6
:1033980000F084809A4228BF1A46ADF806200146FC
:1033A800204600F045FB03B030BDD0F8B832DB6AE8
:1033B8000DF10600984702234370E2E7D2B2032AD0
:1033C80038D00ED8012A1DD0022A27D0002A4CD185
:1033D800D0F8B4325B6893B10DF10601007C9847D0
:1033E800CFE7042A32D0052A3FD1D0F8B4329B69FE
:1033F800002B37D00DF10601007C9847C1E7FFF795
:1034080080FFD0E7D0F8B4329B6823B10DF10601F4
:10341800007C9847B5E7FFF774FFC4E7D0F8B432EB
:10342800DB6823B10DF10601007C9847A9E7FFF797
:1034380068FFB8E7D0F8B4321B6923B10DF1060173
:10344800007C98479DE7FFF75CFFACE7D0F8B43203
:103458005B6923B10DF10601007C984791E7FFF7FE
:1034680050FFA0E7FFF74DFF9DE729462046FFF7ED
:1034780048FF98E7037C33B9D0F8B8325B6B0DF19D
:10348800060098477DE7FFF73CFF8CE7FFF739FF19
:1034980089E729462046FFF734FF84E72946204676
:1034A800FFF72FFF7FE7204600F0F1FA7BE738B5FA
:1034B80004468B8803BBCB88F3B94B887F2B1BD87A
:1034C80003F07F031A4690F89C32032B0DD0154663
:1034D80080F89E221146FDF796FB204600F0D7FAA9
:1034E80035B1022384F89C3209E0FFF70AFF06E0B1
:1034F800012384F89C3202E02046FFF702FF38BD22
:1035080070B504460E464B88DDB2324A1570012D5F
:1035180011D890F89C22D1B2022A10D0032928D0C1
:103528003146FFF7EEFE2B4B19782046FFF700FDDA
:103538000325284670BDFFF7E4FE0325F9E7ADB182
:10354800DBB243602946FFF7EAFC054638B131464D
:103558002046FFF7D6FE022384F89C32E9E720468E
:1035680000F095FA032384F89C32E2E700F08FFA22
:10357800DFE7D5B1DBB241688B4226D0C9B2FFF78D
:10358800D7FC144B197861602046FFF7C8FC054644
:10359800B8B131462046FFF7B4FE21792046FFF73F
:1035A800C7FC022384F89C32C3E7022280F89C22DD
:1035B800DBB243602946FFF7BBFC204600F067FA00
:1035C800B7E7204600F063FAB3E700F060FA002599
:1035D800AFE700BFF81C002008B5CB88012B0BD142
:1035E80090F89C32DAB2022B09D9032A11D10122B0
:1035F800011D00F01DFA01E0FFF783FE08BD52B27D
:103608003AB10146002341F8083F012200F010FAC0
:10361800F4E7FFF776FEF1E708B590F89C32013B36
:10362800022B12D8CB88022B0CD10123C360D0F80F
:10363800A4320BB10323C360022200F10C0100F095
:10364800F7F908BDFFF75DFEFBE7FFF75AFEF8E75D
:1036580008B54B88012B04D0022B07D0FFF751FE89
:1036680008BDC0F8A43200F012FAF9E78B881B0AEB
:1036780080F8A03200F00BFAF2E708B590F89C3217
:10368800013B022B09D84B88012B00D008BD002331
:10369800C0F8A43200F0FBF9F8E7FFF732FEF5E7CF
:1036A80038B50C7804F06004202C06D0402C04D0E7
:1036B8006CB1FFF726FE002407E0D0F8D432AE3311
:1036C80050F823309B6898470446204638BD4B780D
:1036D8001D46052B12D008D8012B1CD0032B17D060
:1036E800E3B9FFF799FF2C46EFE7082B0DD0092B1C
:1036F80007D0062B12D1FFF70EFEE6E7FFF7D7FE3D
:10370800E3E7FFF7FDFE0446DFE7FFF765FFDCE7C9
:10371800FFF79EFFD9E7FFF7B0FFD6E7FFF7F1FD08
:10372800D3E770B505460C460B7803F06003202BF1
:1037380008D0402B06D02BB1FFF7E3FD00231E462F
:10374800304670BD95F89C32013B022B2AD821796E
:10375800012906D921462846FFF7D3FD00231E4636
:10376800EEE72846FFF7B8FC034668B900F1AE0259
:10377800284655F82220916889B1C5F8D432936853
:1037880021469847064601E003231E46E388002B9E
:10379800D6D1002ED4D1284600F079F9D0E70323FA
:1037A8001E46F3E721462846FFF7ABFD00231E46D9
:1037B800C6E72DE9F04106460D468B88DAB2174672
:1037C8000C7804F06004202C08D0402C06D0DCB122
:1037D800FFF797FD00242046BDE8F08139463046C2
:1037E800FFF77CFC0446002840F0FB803046C6F812
:1037F800D44204F1AE0356F823309B68002BEAD07C
:10380800294698470446E6E74A789046012A2FD089
:10381800032A04D0002A69D0FFF773FDDBE790F88C
:103828009C32DAB2022B04D0032A12D0FFF769FDCA
:10383800D1E739460FB1802F04D129463046FFF72A
:1038480060FDC8E7FDF7CFF980213046FDF7CBF9D9
:10385800C1E74B8823B91FB1802F01D0CB881BB19A
:10386800304600F014F9B6E73946FDF7BCF9F7E73A
:1038780090F89C22D1B2022A05D0032913D02946F8
:10388800FFF73FFDA7E739460FB1802F04D129463E
:103898003046FFF736FD9EE7FDF7A5F98021304653
:1038A800FDF7A1F997E76A88002A94D113F07F0FF2
:1038B80018D1304600F0EBF839463046FFF70EFCD9
:1038C8000346002887D13046C6F8D43203F1AE0249
:1038D80056F822209268002A00F0858029469047F1
:1038E800044678E73946FDF786F9E2E790F89C2226
:1038F800D1B2022A06D003292AD02946FFF701FDB2
:10390800444668E70FB1802F14D113F0800F16D109
:1039180003F07F0303EB8303990001F5A871314499
:103928000431002301F80E3F0222304600F080F8EF
:10393800444650E72946FFF7E4FC44464BE703F0CA
:103948007F0303EB83039900103131440431E8E726
:1039580059B2002920DB03F00F0202EB820200EBD0
:10396800820292F863412CB3002927DB03F07F031E
:1039780003EB83039C0004F5A874344404340FB1AA
:10398800802F24D10023A373022204F10E013046B4
:1039980000F04EF844461EE703F00F0202EB8202E5
:1039A80000EB820292F82340002CDDD12946FFF774
:1039B800A8FC10E72946FFF7A4FC0CE703F07F03F7
:1039C80003EB83039C00103434440434D7E73946AE
:1039D8003046FDF7C1F810B10123A373D4E7A073F3
:1039E800D2E70024F7E61C46F5E600B370B50D46AD
:1039F80016460446FFF767FC01304300B3F5007F25
:103A080006D89BB233802B7003236B7002230AE025
:103A18004FF40073F6E7EA5401345A1CD2B200217D
:103A2800A9540233DBB22278002AF4D170BD704762
:103A380008B513460222C0F89422436141628361AB
:103A48000A460021FDF7E7F8002008BD08B513462F
:103A58000A460021FDF7DFF8002008BD08B5134627
:103A68000322C0F89422C0F85431C0F86411C0F899
:103A780058310A460021FDF7D6F8002008BD08B5E0
:103A880013460A460021FDF7CEF8002008BD08B508
:103A98000422C0F8942200231A461946FDF7BBF801
:103AA800002008BD08B50522C0F8942200231A4654
:103AB8001946FDF7B8F8002008BD10B5D0F8D43283
:103AC80003F1B00250F822408CB100EB8200436849
:103AD8007BB194F80002FF280DD09B6894F801226E
:103AE80021469847FF2384F80032002010BD0320A8
:103AF800FCE71846FAE70020F8E700000A230380ED
:103B080000487047EC000020F8B507460F4D8221A9
:103B18002846FFF7B9FB064601212846FFF7B4FB04
:103B2800044681212846FFF7AFFB0EB11022B2717F
:103B38001CB1402222710022627118B14022027128
:103B48000022427143233B800048F8BD70000020EA
:103B5800F8B507460F4D82212846FFF795FB064624
:103B680001212846FFF790FB044681212846FFF7EC
:103B78008BFB0EB11022B2711CB1402222710022BF
:103B8800627118B1402202710022427143233B80C6
:103B98000048F8BD70000020F8B507460F4D822197
:103BA8002846FFF771FB064601212846FFF76CFB04
:103BB800044681212846FFF767FB0EB11022B27137
:103BC8001CB1002222710222627118B10022027116
:103BD8000222427143233B800048F8BD7000002058
:103BE80038B5D0F8D432B03350F8235095B10446E4
:103BF800FCF7C8FFC5F80C02D4F8D432B03304EB94
:103C080083046368DB6805F50371D5F804029847F7
:103C1800002038BD0320FCE710B5D0F8C8E2D0F882
:103C2800D432B03350F823C0BCF1000F2FD001F0CC
:103C38000F0303EB830200EB8202526952B103EBDC
:103C4800C3040EEB840EDEF81CE0B2FBFEF40EFBA0
:103C5800142292B10023CCF81432D0F8D432B03305
:103C680000EB830043681B699BB10A460CF504719D
:103C7800DCF808029847002010BD03EB830300EB33
:103C880083035A611346FCF7C6FF0020F4E70320BC
:103C9800F2E71846F0E7F0B583B0D0F8D43203F174
:103CA800B00250F8227000228DF80720ADF80420E9
:103CB800002F76D004460D46097811F0600633D0FF
:103CC800202E67D1EA882AB311F0800F07D16B78CC
:103CD80087F80032EA883F2A13D8D2B212E0B0330C
:103CE80000EB83035B689B68394668789847EA88E5
:103CF800072A28BF072239462046FFF799FE0026E3
:103D08004CE0402287F8012239462046FFF7A6FEFC
:103D1800002643E0B03300EB83035B689B682946C9
:103D280068789847002639E06F780A2F23D008D89A
:103D380097B1012F32D029462046FFF7E2FA032631
:103D48002CE00B2FF7D190F89C32032B26D0294674
:103D5800FFF7D7FA032621E090F89C32032B04D012
:103D68002946FFF7CEFA032618E0022201A9FFF739
:103D78005FFE3E4612E090F89C32032B04D02946A1
:103D8800FFF7BFFA032609E001220DF10701FFF74B
:103D98004FFE03E02946FFF7B4FA0326304603B086
:103DA800F0BD0326FAE738B504468121FCF713FF76
:103DB800002584F8375001212046FCF70CFF84F8D1
:103DC800775182212046FCF706FF84F84B50656442
:103DD800D4F8D43203F1B00254F822209AB1B033A7
:103DE80004EB83035B685B689847D4F8D432B0333C
:103DF80054F82300FCF7D0FED4F8D432B03344F89A
:103E08002350C4F8BC52002038BD70B504464FF4A6
:103E18000770FCF7BDFE002849D005464FF407722D
:103E2800002100F0EEF8D4F8D432B03344F823502F
:103E3800C4F8BC52237C002B40D14FF400730222FB
:103E480081212046FCF7BCFE012684F837604FF438
:103E58000073022231462046FCF7B2FE84F87761EF
:103E6800102363640823032282212046FCF7A8FE5E
:103E7800012384F84B300026C5F80462D4F8D43204
:103E8800B03304EB83035B681B689847C5F814627A
:103E9800C5F81862D5F804225AB3257C15BB4FF42F
:103EA800007301212046FCF7BEFE284670BDD4F8F9
:103EB800D432B03344F823000225F6E74023022227
:103EC80081212046FCF77CFE012684F837604023D8
:103ED800022231462046FCF773FE84F877611023EE
:103EE8006364BFE7402301212046FCF79CFE0025C0
:103EF800DBE70225D9E739B1D0F8D432B03300EB8B
:103F0800830041600020704703207047D0F8D43206
:103F1800B03350F823302BB1C3F80812C3F810227D
:103F28000020704703207047D0F8D432B03350F8DF
:103F380023301BB1C3F804120020704703207047D8
:103F480008B5D0F8D432B03350F823208AB1D2F86B
:103F580014320BB1012008BD0123C2F81432D2F883
:103F680010328362D2F808228121FCF754FE002027
:103F7800F1E70320EFE710B5D0F8D432B03350F8AA
:103F8800232092B1047C44B94FF40073D2F8042280
:103F98000121FCF748FE204610BD4023D2F8042238
:103FA8000121FCF740FE0024F5E70324F3E70000B5
:103FB800DFF834D0FEF76EFF0C480D490D4A002398
:103FC80002E0D458C4500433C4188C42F9D30A4AC6
:103FD8000A4C002301E013600432A242FBD300F034
:103FE80019F8FCF761FB7047000002200000002070
:103FF800F80000200C410008F8000020FC1C0020FC
:10400800FEE702440346934200D1704703F8011BC0
:10401800F9E7000070B50D4B0D4D5B1B9C10002699
:10402800A64209D100F01AF80A4D0B4B5B1B9C10F5
:104038000026A64205D170BD55F8043B98470136C5
:10404800EEE755F8043B98470136F2E704410008CB
:10405800044100080441000808410008F8B500BF01
:10406800F8BC08BC9E467047F8B500BFF8BC08BC51
:044078009E467047A9
:10407C00427574746F6E2031205072657373656471
:10408C000A000000427574746F6E20322050726505
:10409C00737365640A00000053544D333220566923
:1040AC00727475616C20436F6D506F7274000000F8
:1040BC0053544D6963726F656C656374726F6E698E
:1040CC006373000043444320436F6E6669670000CE
:1040DC0043444320496E7465726661636500000059
:1040EC00000000000000000001020304060708099C
:0840FC0024C1FF7F0100000058
:0441040001020008AC
:04410800D9010008D1
:10410C001A03000000000000000000000000000086
:10411C00000000000000000000000000040309047F
:10412C001201000202020040830440570002010207
:10413C0003010000F1070008FD070008BD08000896
:10414C009908000885080008D9080008FD0800082F
:10415C004909000821090008250900082D09000853
:10416C002909000801000000100000000024F400E0
:10417C0009024300020100C03209040000010202DE
:10418C000100052400100105240100010424020291
:10419C00052406000107058203080010090401002C
:1041AC00020A000000070501024000000705810219
:1041BC0040000000133E0008AF3D00089F3C000883
:1041CC0000000000C33A0008213C0008E93B00084D
:1041DC00000000000000000000000000A13B0008EF
:1041EC00593B0008113B0008053B00080A06000279
:0841FC0000000040010000007A
:0400000508003FB9F7
:00000001FF
